{"abi":[{"type":"function","name":"buyItem","inputs":[{"name":"id","type":"uint256","internalType":"uint256"}],"outputs":[],"stateMutability":"payable"},{"type":"function","name":"getItemCount","inputs":[],"outputs":[{"name":"","type":"uint256","internalType":"uint256"}],"stateMutability":"view"},{"type":"function","name":"itemCount","inputs":[],"outputs":[{"name":"","type":"uint256","internalType":"uint256"}],"stateMutability":"view"},{"type":"function","name":"items","inputs":[{"name":"","type":"uint256","internalType":"uint256"}],"outputs":[{"name":"id","type":"uint256","internalType":"uint256"},{"name":"name","type":"string","internalType":"string"},{"name":"owner","type":"address","internalType":"address"},{"name":"price","type":"uint256","internalType":"uint256"},{"name":"listed","type":"bool","internalType":"bool"}],"stateMutability":"view"},{"type":"function","name":"listItem","inputs":[{"name":"name","type":"string","internalType":"string"},{"name":"price","type":"uint256","internalType":"uint256"}],"outputs":[],"stateMutability":"nonpayable"},{"type":"function","name":"relistItem","inputs":[{"name":"itemId","type":"uint256","internalType":"uint256"}],"outputs":[],"stateMutability":"nonpayable"},{"type":"event","name":"ItemBought","inputs":[{"name":"id","type":"uint256","indexed":false,"internalType":"uint256"},{"name":"newOwner","type":"address","indexed":false,"internalType":"address"},{"name":"price","type":"uint256","indexed":false,"internalType":"uint256"}],"anonymous":false},{"type":"event","name":"ItemListed","inputs":[{"name":"id","type":"uint256","indexed":false,"internalType":"uint256"},{"name":"name","type":"string","indexed":false,"internalType":"string"},{"name":"owner","type":"address","indexed":false,"internalType":"address"},{"name":"price","type":"uint256","indexed":false,"internalType":"uint256"}],"anonymous":false}],"bytecode":{"object":"0x6080604052348015600f57600080fd5b506108038061001f6000396000f3fe6080604052600436106100555760003560e01c80631f0b9e771461005a5780636bfb0d011461007c5780637749cf23146100a55780638511c937146100ba578063bfb231d2146100da578063e7fb74c71461010b575b600080fd5b34801561006657600080fd5b5061007a6100753660046104bb565b61011e565b005b34801561008857600080fd5b5061009260015481565b6040519081526020015b60405180910390f35b3480156100b157600080fd5b50600154610092565b3480156100c657600080fd5b5061007a6100d53660046104ea565b6101a9565b3480156100e657600080fd5b506100fa6100f53660046104bb565b61029b565b60405161009c9594939291906105e5565b61007a6101193660046104bb565b610361565b600081815260208190526040902060028101546001600160a01b031633146101985760405162461bcd60e51b815260206004820152602260248201527f596f7520617265206e6f7420746865206f776e6572206f662074686973206974604482015261656d60f01b60648201526084015b60405180910390fd5b600401805460ff1916600117905550565b600180549060006101b983610626565b90915550506040805160a081018252600180548083526020808401878152338587015260608501879052608085018490526000928352908290529390208251815592519192919082019061020d90826106d8565b506040828101516002830180546001600160a01b0319166001600160a01b03909216919091179055606083015160038301556080909201516004909101805460ff191691151591909117905560015490517f14b4663447ab51709bbc72789cc3085f44127ba46ea1f206dac4942e327d23759161028f91859033908690610798565b60405180910390a15050565b600060208190529081526040902080546001820180549192916102bd9061064d565b80601f01602080910402602001604051908101604052809291908181526020018280546102e99061064d565b80156103365780601f1061030b57610100808354040283529160200191610336565b820191906000526020600020905b81548152906001019060200180831161031957829003601f168201915b505050506002830154600384015460049094015492936001600160a01b039091169290915060ff1685565b6000818152602081905260409020600481015460ff166103c35760405162461bcd60e51b815260206004820152601860248201527f4974656d206e6f74206c697374656420666f722073616c650000000000000000604482015260640161018f565b80600301543410156104175760405162461bcd60e51b815260206004820152601e60248201527f496e73756666696369656e742066756e647320746f20627579206974656d0000604482015260640161018f565b6002810180546001600160a01b03198116331790915560048201805460ff191690556040516001600160a01b039091169081903480156108fc02916000818181858888f19350505050158015610471573d6000803e3d6000fd5b5060038201546040805185815233602082015280820192909252517fd73457218f6ab2c74e548247b8ccd99af11d7975e2beef89a0cd9743fb558da49181900360600190a1505050565b6000602082840312156104cd57600080fd5b5035919050565b634e487b7160e01b600052604160045260246000fd5b600080604083850312156104fd57600080fd5b823567ffffffffffffffff8082111561051557600080fd5b818501915085601f83011261052957600080fd5b81358181111561053b5761053b6104d4565b604051601f8201601f19908116603f01168101908382118183101715610563576105636104d4565b8160405282815288602084870101111561057c57600080fd5b826020860160208301376000602093820184015298969091013596505050505050565b6000815180845260005b818110156105c5576020818501810151868301820152016105a9565b506000602082860101526020601f19601f83011685010191505092915050565b85815260a0602082015260006105fe60a083018761059f565b6001600160a01b03959095166040830152506060810192909252151560809091015292915050565b60006001820161064657634e487b7160e01b600052601160045260246000fd5b5060010190565b600181811c9082168061066157607f821691505b60208210810361068157634e487b7160e01b600052602260045260246000fd5b50919050565b601f8211156106d3576000816000526020600020601f850160051c810160208610156106b05750805b601f850160051c820191505b818110156106cf578281556001016106bc565b5050505b505050565b815167ffffffffffffffff8111156106f2576106f26104d4565b61070681610700845461064d565b84610687565b602080601f83116001811461073b57600084156107235750858301515b600019600386901b1c1916600185901b1785556106cf565b600085815260208120601f198616915b8281101561076a5788860151825594840194600190910190840161074b565b50858210156107885787850151600019600388901b60f8161c191681555b5050505050600190811b01905550565b8481526080602082015260006107b1608083018661059f565b6001600160a01b0394909416604083015250606001529291505056fea2646970667358221220fe3fdb0f3d8d016ebbc0512eb1c46900482163650c0bba79b5796a14954e534b64736f6c63430008190033","linkReferences":{}},"methodIdentifiers":{"buyItem(uint256)":"e7fb74c7","getItemCount()":"7749cf23","itemCount()":"6bfb0d01","items(uint256)":"bfb231d2","listItem(string,uint256)":"8511c937","relistItem(uint256)":"1f0b9e77"},"id":0}