{"abi":[{"type":"function","name":"buyItem","inputs":[{"name":"id","type":"uint256","internalType":"uint256"}],"outputs":[],"stateMutability":"payable"},{"type":"function","name":"getItemCount","inputs":[],"outputs":[{"name":"","type":"uint256","internalType":"uint256"}],"stateMutability":"view"},{"type":"function","name":"itemCount","inputs":[],"outputs":[{"name":"","type":"uint256","internalType":"uint256"}],"stateMutability":"view"},{"type":"function","name":"items","inputs":[{"name":"","type":"uint256","internalType":"uint256"}],"outputs":[{"name":"id","type":"uint256","internalType":"uint256"},{"name":"name","type":"string","internalType":"string"},{"name":"owner","type":"address","internalType":"address"},{"name":"price","type":"uint256","internalType":"uint256"},{"name":"listed","type":"bool","internalType":"bool"}],"stateMutability":"view"},{"type":"function","name":"listItem","inputs":[{"name":"name","type":"string","internalType":"string"},{"name":"price","type":"uint256","internalType":"uint256"}],"outputs":[],"stateMutability":"nonpayable"},{"type":"event","name":"ItemBought","inputs":[{"name":"id","type":"uint256","indexed":false,"internalType":"uint256"},{"name":"newOwner","type":"address","indexed":false,"internalType":"address"},{"name":"price","type":"uint256","indexed":false,"internalType":"uint256"}],"anonymous":false},{"type":"event","name":"ItemListed","inputs":[{"name":"id","type":"uint256","indexed":false,"internalType":"uint256"},{"name":"name","type":"string","indexed":false,"internalType":"string"},{"name":"owner","type":"address","indexed":false,"internalType":"address"},{"name":"price","type":"uint256","indexed":false,"internalType":"uint256"}],"anonymous":false}],"bytecode":{"object":"0x6080604052348015600f57600080fd5b506107bc8061001f6000396000f3fe60806040526004361061004a5760003560e01c80636bfb0d011461004f5780637749cf23146100785780638511c9371461008d578063bfb231d2146100af578063e7fb74c7146100e0575b600080fd5b34801561005b57600080fd5b5061006560015481565b6040519081526020015b60405180910390f35b34801561008457600080fd5b50600154610065565b34801561009957600080fd5b506100ad6100a836600461048a565b6100f3565b005b3480156100bb57600080fd5b506100cf6100ca36600461053f565b6101e5565b60405161006f95949392919061059e565b6100ad6100ee36600461053f565b6102ab565b60018054906000610103836105df565b90915550506040805160a08101825260018054808352602080840187815233858701526060850187905260808501849052600092835290829052939020825181559251919291908201906101579082610691565b506040828101516002830180546001600160a01b0319166001600160a01b03909216919091179055606083015160038301556080909201516004909101805460ff191691151591909117905560015490517f14b4663447ab51709bbc72789cc3085f44127ba46ea1f206dac4942e327d2375916101d991859033908690610751565b60405180910390a15050565b6000602081905290815260409020805460018201805491929161020790610606565b80601f016020809104026020016040519081016040528092919081815260200182805461023390610606565b80156102805780601f1061025557610100808354040283529160200191610280565b820191906000526020600020905b81548152906001019060200180831161026357829003601f168201915b505050506002830154600384015460049094015492936001600160a01b039091169290915060ff1685565b60025460ff16156103035760405162461bcd60e51b815260206004820152601f60248201527f5265656e7472616e637947756172643a207265656e7472616e742063616c6c0060448201526064015b60405180910390fd5b6002805460ff191660011790556000818152602081905260409020600481015460ff166103725760405162461bcd60e51b815260206004820152601860248201527f4974656d206e6f74206c697374656420666f722073616c65000000000000000060448201526064016102fa565b80600301543410156103c65760405162461bcd60e51b815260206004820152601e60248201527f496e73756666696369656e742066756e647320746f20627579206974656d000060448201526064016102fa565b6002810180546001600160a01b03198116331790915560048201805460ff191690556040516001600160a01b039091169081903480156108fc02916000818181858888f19350505050158015610420573d6000803e3d6000fd5b5060038201546040805185815233602082015280820192909252517fd73457218f6ab2c74e548247b8ccd99af11d7975e2beef89a0cd9743fb558da49181900360600190a150506002805460ff1916905550565b634e487b7160e01b600052604160045260246000fd5b6000806040838503121561049d57600080fd5b823567ffffffffffffffff808211156104b557600080fd5b818501915085601f8301126104c957600080fd5b8135818111156104db576104db610474565b604051601f8201601f19908116603f0116810190838211818310171561050357610503610474565b8160405282815288602084870101111561051c57600080fd5b826020860160208301376000602093820184015298969091013596505050505050565b60006020828403121561055157600080fd5b5035919050565b6000815180845260005b8181101561057e57602081850181015186830182015201610562565b506000602082860101526020601f19601f83011685010191505092915050565b85815260a0602082015260006105b760a0830187610558565b6001600160a01b03959095166040830152506060810192909252151560809091015292915050565b6000600182016105ff57634e487b7160e01b600052601160045260246000fd5b5060010190565b600181811c9082168061061a57607f821691505b60208210810361063a57634e487b7160e01b600052602260045260246000fd5b50919050565b601f82111561068c576000816000526020600020601f850160051c810160208610156106695750805b601f850160051c820191505b8181101561068857828155600101610675565b5050505b505050565b815167ffffffffffffffff8111156106ab576106ab610474565b6106bf816106b98454610606565b84610640565b602080601f8311600181146106f457600084156106dc5750858301515b600019600386901b1c1916600185901b178555610688565b600085815260208120601f198616915b8281101561072357888601518255948401946001909101908401610704565b50858210156107415787850151600019600388901b60f8161c191681555b5050505050600190811b01905550565b84815260806020820152600061076a6080830186610558565b6001600160a01b0394909416604083015250606001529291505056fea264697066735822122015800bae1c78210cdbebdcdc9f6defadf4ce8c4923eb040de3fecba1ac5bb13664736f6c63430008190033","linkReferences":{}},"methodIdentifiers":{"buyItem(uint256)":"e7fb74c7","getItemCount()":"7749cf23","itemCount()":"6bfb0d01","items(uint256)":"bfb231d2","listItem(string,uint256)":"8511c937"},"id":0}